{
  "result": {
    "hex": "0200000021006fb176be9cdf45a8e4864a27bb29f27b0d02645b605ff2cb25e1a72c83809a000000006a473044022031cb70df5885b7cad8d0e9cb91b61d181ed12b3643bf1c7d9979c68b6776204d022031fbb2434f648e3c355b40b593e8b23c90b5a5ca597479dad8d5a6c192bd869041210253f0808fc8aaaca1a760db01f1cb49030f9b250d92803cc63d28644212c04d59feffffff1c60da15276a1a9d38f80daa7426f3311809ab164a20fb36c19ff217266f0b11000000006b483045022100c57a624f2098b3fbe2999e2a1d0773dfaed34886eef98514e884ac0cbff8f5ec022001319fa0f1c4526eb6159d3876c135af280d1c09d327cc9581f71d86b547ce354121024eee2e5844673b9625cc245df5afb31fea5ec1991913858c95f370a4303c67bdfeffffff1ebf4f3494df85550626132646f5347bc240c1ec4994e8cc94ff398dbd59ea43000000006b48304502210094e20c506f4dbd41ee8e899b49523235497887ada1bb2454b65f533a7ed5259c0220468849fe962fc3579d11a0c09920ecea0100bee7cd12a16ae1d5aa1b8c20ffbc41210352a5dac8e5e246bd57d208b7309ace7008c9b6c5527ff7146ec47a634b32d1c4feffffff27057a999cd79b45424d279e95c872be3da22d9121dfef5925700057926601c5010000006b483045022100ae05d576d30884a8608e4a1151d23cb376e25564228932c0c6b0f2fd7cb80e8d022012aaca29ccd5ac990ba0786a646da2a0f92f364a4420c950501703cddd56f96941210253f0808fc8aaaca1a760db01f1cb49030f9b250d92803cc63d28644212c04d59feffffff2d5691997f96248cb9fbd4d383d9c76b199e28fa063e6b40ee2140c554586f9d000000006b483045022100fe54ff4857c15e942b62f94f1a481a63c0fb7dd1250f2dc0cdc44c353d91170f02201f37fd0b6a3c82c0294d3e2caea57f1f705716d4d288da0a1c1ac5133f577ed2412103eb20235eada9ce1a28d48e12defe3c9864dd6ee5cd488305feb312486d63a637feffffff2d99c84c747eb8b4b90445aa292d2ae00f220f34cd7ecfc7d20ac869b7a36a7f000000006b483045022100ea87ba4bc91d92cc01199ba18297ef443e45fb8446e8d25d9929274505ca5aaa02205df3994f91b7948d509f0dfc612b38e076a71a7ee4ebaec5a4005b0375082ecb412102134e601e9a34318107973e04bbbd590793b8ca920983d94a89ffc905d380ac95feffffff35cca7d593e63004907f1fc70f80792043bbd10b1108feae94e19fc381740567000000006b483045022100e6a4d3431a7a405c6bc591eabf51f2bd8a34a2843ba6f51817121f4a46126a0502201437dbbc36ef22be8dc6f345f1299747567a53fb14b997538d929bd60880fbf041210253f0808fc8aaaca1a760db01f1cb49030f9b250d92803cc63d28644212c04d59feffffff3faaac2768baecfda69b9afa24fc3c6f1c7675f47624c2553c43dc9f6b33acfd000000006a473044022040a92ef9513ca1ecb0e003ba65252fa91944880b277828c332b814b35b7ba93702202cd65a47f84acba97a9c28b2b90da90e9fdcbbffdb15525ebd3ab94fe51aa38d41210253f0808fc8aaaca1a760db01f1cb49030f9b250d92803cc63d28644212c04d59feffffff4848dfe6717e9f5dbaa5c0ee0be52bf7c227170920eed7bb3ae3e0709a2e0ecb000000006b483045022100b6abf57215e297062a5ebdce4d276c80e4bdcdf76fd9d4ade1cc63cc113c2905022025b95f12011d43b75b0018671613db56bd05546c66515a71d1d0257ece88f9ea412103eb20235eada9ce1a28d48e12defe3c9864dd6ee5cd488305feb312486d63a637feffffff5e77836b6ec1764ec0b9dcc6350ce19c83fcdfacc834cd6a4a64476349bee0af000000006a47304402206e8082281b5c2929cfeae8c83f0bacfbf081b4ea43d1b440005c8abaabe5ac1e0220619c6756c5796c0472e7f11100a32d98fc71e9bd88f4ed77bc14d9c5ccd4f20f41210352a5dac8e5e246bd57d208b7309ace7008c9b6c5527ff7146ec47a634b32d1c4feffffff6712458a43dc215a4ebfe1b530a8a05843f88fe4396a058d95ba4d8c41336855000000006a4730440220699f7a592c2af1e9682e6bfdc3bbaf393c02625256c3328aff4c9b69ef89b05e0220474b42eb64a196e8664e798b538ff3d1f944d39df452b79d247866851d0b55bb41210253f0808fc8aaaca1a760db01f1cb49030f9b250d92803cc63d28644212c04d59feffffff67beddae42b02b3e03061bf140dd156cf9f4d705da9d09f6977f2c665c52de53000000006b483045022100aaedf89633338fd1f2d0a96531809201b8b76c5d4a3c39fc2d2ccd97962cc8b102207e369c9adc31f1cea5d61357e1ee47bcc366110e49d3022da39d7d6876b0222c4121022ae373ff0a53eece511310cd742d5fee28a60dbb86a88df1c802dbf887da4691feffffff771aa050ab46541ecaa2d40fbfc94fcc9e6609897006326ada0a2599321a8479010000006a473044022012d5cd8a0bfbd785647ec6ca461b91039664a4f1c7b10ea1beb5d87852cbf58c02204162cfc18cb84a27614262128529e80d75d8471c9a85c74521234c2e3e4f4eaf4121028624044546bd6f19710a4fe03e685b7b0f1a6b1dac77b8e810c9b656bfef5c46feffffff7857b2a5ee1d99f249ecbbf560d71d1d7aa6996cea4f37496336adefa6e99632000000006a47304402204f3dffa8908624def7524feaaa8bfbc61916210f514512b6fc00bcd355324cbc022001f1e1996c573118bed517c95537049760104c61e3ed1c0573e53137fc52e39f4121020319f1426ad1691232ddae4df7c99d12d8b91ea4213eb3d75a4ef9714c039723feffffff7f1e791345f9a1790bb241c66cbee42cad80321d8d4e3a67bda6e74c0d3d225f000000006a47304402200ebcd925b906bc296cee20108e735c785795a75c1cae13e7476140233cd433b2022063436288752ff69aee106b2c57233aa4b035da516278f738992e0a93daacd0c841210352a5dac8e5e246bd57d208b7309ace7008c9b6c5527ff7146ec47a634b32d1c4feffffff8087b35e1876f169d5b74df44d91d5a0099c6e4b31d9f60d000c66ca0cb3b666010000006a473044022011096f0864d4349bae2aa59b6cbd28e57ecffbc61e966f2813feff2e8c4b0f4902201563594a25bc7dd90ebe3a26b301b9e6dfd8f89b62fa3f090035252388441835412103482a297d29ace3abbea82fd66380e2abe9cc5130ffbe4c2203798062d63e7d63feffffff99f72536c924fbced0f499fb996126368f75d68654623e296a209185d0e2040a010000006a4730440220264f1db1e3f1fb976dca459a0789497ac72cee741fbc1f3917f438b9aab5d17802205379fe9b9b8c2b5d56bbd7ab57c0e31a5205e56d22090bfef607caee1ff4e4ab41210253f0808fc8aaaca1a760db01f1cb49030f9b250d92803cc63d28644212c04d59feffffffa15a40d409b9d93c8a97fe3100b3b36b03ba4c58e77b8ef9357eba212142e9c8010000006a47304402206c4872a0cf8fd7bb11fd185fc0b402497136a8a39cff81270b9aff1e7ec9f33902203c59308551d04234336355845ee4ae127356f3835aa03fda2b2d4b4c52106396412102f1f2a992523e24bc5ffca00e8350416d1bb51c190b703d9ebf15a32a3c4ed6aafeffffffb3695eda0ef39612b3abd170bafae78a695030a1c9a692d2705e58d393034cef000000006a4730440220727ee0ebb086ffb4a88565ce3d6d9af10ed339c40474168d8593f60c09f1ee4d022035d26fff5b7bdf1df0af2b5d7867d25783cd9ac8138b90f7bb3b39994a9c751b41210253f0808fc8aaaca1a760db01f1cb49030f9b250d92803cc63d28644212c04d59feffffffb455b68ed22d5d255dc0013712a848d74941b1cc76ae18c403c2f1eff8b1aebc000000006a473044022014654a775ccdf1e1ceea63a3a5a4a4c7f52855f6657b8ba36f2e2dcd2d30178e022061b293c7fcd9d8fb7e575605dd8af816e04f22015bfb51db2d766048f67246b441210352a5dac8e5e246bd57d208b7309ace7008c9b6c5527ff7146ec47a634b32d1c4feffffffb760a87c03857450acf6f79953dc14ead6e0ff79929599631c7da5bd212fcefc000000006b483045022100841f0925aa03bb53821403a7867f93f82a20966bfe02ec43bb59e963c6544a08022075c299718fbf1990d9625a05daa451c157eaad3ff70e6a59cce41545eb08ed4141210253f0808fc8aaaca1a760db01f1cb49030f9b250d92803cc63d28644212c04d59feffffffb80bf235c5023b9d380168d2a5482ef2d76a261f9bde0e343f99e05771d066ab000000006a47304402202f00952da396fca5676da36f9c45f80731b08d5333863d31ce78c3daeb961f0f02203877378dae8e64145592741c957670a8e3bdef0bad166e4a534d5bc50394790b412102134e601e9a34318107973e04bbbd590793b8ca920983d94a89ffc905d380ac95feffffffc0775d2aca385e13adc5691aeb35214ecc7ee1414ecdd33e0f62b23f3ec8261e010000006b483045022100b2a9bc830c0794be181b396b11a03cba412ad8a5b5c3ed4080d1bd288f0032a202205c828c2f9b0027aed64e75e9597ccf4e7b66479392a6a2749a196c2a0ef382de412103e7c53b858898282285ff3d1239a4bf4adfc43fd7979f4d9627f99ccae3f768d1feffffffc0c99cf0dcdf019a992bc12e6184d9ff5a77e614d0b36133d1d6436a7f519364000000006b483045022100ca9c3197fdf763de7b1f01868e22f74dc110595e8055e5c700a6d9b8870366b702205c91f018ca79dae60ea1c0b11670d08985cf66c1a0169b77500281f8c5169e52412102c0dd423f49462e81067684e7c8dbcfc4216ca23b9ede6485738d0f18722f6656feffffffcb83a8c190bf9322ed35cb9d3582fc1b2e4d2e46cab7e68afcb32566c8f7f734010000006b483045022100d6f0427566c86c7c4169ab7c60ef26e06945ecb5b6b1ab419d5f28a43b159bdc02204ae7a3045d4feb20cedde99d7802b10079d3b4fa36ee02ff93aa0c7e3728fd7e41210352a5dac8e5e246bd57d208b7309ace7008c9b6c5527ff7146ec47a634b32d1c4feffffffcf38f9329cfe777b4b3a0a904474ac65c0c21ae9c5bb1697d9ea7aad5f6bed77000000006b48304502210085e057334d5b442ffbeb97e1336fff3565fe1c481e9f38f0c9d46794d033e8b002200315f5c43b25005b9854bf7178c609ee92431a2e465fffbf6c5a088d6104c298412102134e601e9a34318107973e04bbbd590793b8ca920983d94a89ffc905d380ac95fefffffff5580bab46a14d16de7afcead58e190a610ef70bfb93b0a94f6d2a3bdabf32aa000000006a4730440220561c623405d4ebd484731ea6b825d2523610d1a2e87d9daff0a582b81472e36b02201d489ea38abfab1bca2530eb6fd0e6a8aca588469b5f0a78c4d7cb7ab9d8df3a412102134e601e9a34318107973e04bbbd590793b8ca920983d94a89ffc905d380ac95feffffffff5816aff812139def7df8da576c188b2986ac21cfb1a60c5711ee6dccf06111000000006a4730440220606eacc4ca43d655dc214ea5b45d452554f8b52be9e2509e583c3a420c61086802204a2ca99144e287f386c69e717bf91b774c8e31e034a49bfe81733c8fbf81361041210352a5dac8e5e246bd57d208b7309ace7008c9b6c5527ff7146ec47a634b32d1c4feffffffba9d04c8309a87ccdc9ac6d285381062ecbd93492bee8043b53b935211104ae2000000006b483045022100e94c98f9fc85a235f7b590afd5f6a810b35038eb12b89a3c32449fc6ffd6eb420220015a68ecb66e385329c13e3bce57d1bb419b09c858752a435fb4b90b6b98f2dd412102036aacac07b66640ef9ffa77e29ca4560dc5a4db036de0378078ae758045f094feffffff9aa9af8de210bf7bd8ab33cd0464b6791be307404ce1d2877c4949951124d451000000006a47304402202c37398d3deb07ba5e6aadf6945073b6b6cb33a64ce4ccb23d14609395df867602202c0714be68ba463afe9d4bec6a8b5ddf3b5edd7b50950b5a03c10eacd197ddc2412102a121bc56e95aba6dd72699d83e285e5638031ee01d7e04d69dc20645f0d811f3feffffff9aa9af8de210bf7bd8ab33cd0464b6791be307404ce1d2877c4949951124d451010000006a4730440220254854900c204afa86a831e2e2fea6df1ae731c34c57a4c460e9da8a0ad5afea022033b2fa8f32c31566ebeb5cdd0c036cb0d5da7e62c99c7c5b9a4ebb4305512bc5412102d7e096ae8d1ad5fcc71f9effadc7324313d4db37fd3578edfbb7bac18b8239bdfeffffff915211c61611cf13544c35a8c5736d986081d17f1687394222cb6e69f82fa056000000006a473044022013859f9db46d2a84ce495b385ea44d678ae8117719e31db68bd93ed6ff2c147602201b6873b477823d10dd4b621ea3e9374b5e4e7ea57b37bb345905fa98af8a79ba412102a9a3b6a818a0e1adf83c466ce86df14575849cf3afb59473e6e117184518f161feffffff00a5b11cea9290c3b80308a0178a1e2f942877cf4f671b308e785995f51ec7c7000000006a4730440220010e2a54dfe424f29515fac69d0f1dc9042f9615ee01ea8873704313aeb8596b02207598b6344e604012f7f3476d35d064a915148604f4b0bc43a1cca7589b541281412102d7e096ae8d1ad5fcc71f9effadc7324313d4db37fd3578edfbb7bac18b8239bdfeffffff0229160000000000001976a914ee3ed37225d569a1bd101950c905bd366c2ef58588acc0ad20ad0000000017a9141b43c93e1b472963a93dcf71ef4c7dc8723140d1878a501300",
    "txid": "ee8519e72f4a49da44197cbf417bfe9e00f1c2d0f3db930df94e4e50391ea3fd",
    "hash": "ee8519e72f4a49da44197cbf417bfe9e00f1c2d0f3db930df94e4e50391ea3fd",
    "size": 4941,
    "version": 2,
    "locktime": 1265802,
    "vin": [
      {
        "txid": "9a80832ca7e125cbf25f605b64020d7bf229bb274a86e4a845df9cbe76b16f00",
        "vout": 0,
        "scriptSig": {
          "asm": "3044022031cb70df5885b7cad8d0e9cb91b61d181ed12b3643bf1c7d9979c68b6776204d022031fbb2434f648e3c355b40b593e8b23c90b5a5ca597479dad8d5a6c192bd8690[ALL|FORKID] 0253f0808fc8aaaca1a760db01f1cb49030f9b250d92803cc63d28644212c04d59",
          "hex": "473044022031cb70df5885b7cad8d0e9cb91b61d181ed12b3643bf1c7d9979c68b6776204d022031fbb2434f648e3c355b40b593e8b23c90b5a5ca597479dad8d5a6c192bd869041210253f0808fc8aaaca1a760db01f1cb49030f9b250d92803cc63d28644212c04d59"
        },
        "sequence": 4294967294
      },
      {
        "txid": "110b6f2617f29fc136fb204a16ab091831f32674aa0df8389d1a6a2715da601c",
        "vout": 0,
        "scriptSig": {
          "asm": "3045022100c57a624f2098b3fbe2999e2a1d0773dfaed34886eef98514e884ac0cbff8f5ec022001319fa0f1c4526eb6159d3876c135af280d1c09d327cc9581f71d86b547ce35[ALL|FORKID] 024eee2e5844673b9625cc245df5afb31fea5ec1991913858c95f370a4303c67bd",
          "hex": "483045022100c57a624f2098b3fbe2999e2a1d0773dfaed34886eef98514e884ac0cbff8f5ec022001319fa0f1c4526eb6159d3876c135af280d1c09d327cc9581f71d86b547ce354121024eee2e5844673b9625cc245df5afb31fea5ec1991913858c95f370a4303c67bd"
        },
        "sequence": 4294967294
      },
      {
        "txid": "43ea59bd8d39ff94cce89449ecc140c27b34f546261326065585df94344fbf1e",
        "vout": 0,
        "scriptSig": {
          "asm": "304502210094e20c506f4dbd41ee8e899b49523235497887ada1bb2454b65f533a7ed5259c0220468849fe962fc3579d11a0c09920ecea0100bee7cd12a16ae1d5aa1b8c20ffbc[ALL|FORKID] 0352a5dac8e5e246bd57d208b7309ace7008c9b6c5527ff7146ec47a634b32d1c4",
          "hex": "48304502210094e20c506f4dbd41ee8e899b49523235497887ada1bb2454b65f533a7ed5259c0220468849fe962fc3579d11a0c09920ecea0100bee7cd12a16ae1d5aa1b8c20ffbc41210352a5dac8e5e246bd57d208b7309ace7008c9b6c5527ff7146ec47a634b32d1c4"
        },
        "sequence": 4294967294
      },
      {
        "txid": "c50166925700702559efdf21912da23dbe72c8959e274d42459bd79c997a0527",
        "vout": 1,
        "scriptSig": {
          "asm": "3045022100ae05d576d30884a8608e4a1151d23cb376e25564228932c0c6b0f2fd7cb80e8d022012aaca29ccd5ac990ba0786a646da2a0f92f364a4420c950501703cddd56f969[ALL|FORKID] 0253f0808fc8aaaca1a760db01f1cb49030f9b250d92803cc63d28644212c04d59",
          "hex": "483045022100ae05d576d30884a8608e4a1151d23cb376e25564228932c0c6b0f2fd7cb80e8d022012aaca29ccd5ac990ba0786a646da2a0f92f364a4420c950501703cddd56f96941210253f0808fc8aaaca1a760db01f1cb49030f9b250d92803cc63d28644212c04d59"
        },
        "sequence": 4294967294
      },
      {
        "txid": "9d6f5854c54021ee406b3e06fa289e196bc7d983d3d4fbb98c24967f9991562d",
        "vout": 0,
        "scriptSig": {
          "asm": "3045022100fe54ff4857c15e942b62f94f1a481a63c0fb7dd1250f2dc0cdc44c353d91170f02201f37fd0b6a3c82c0294d3e2caea57f1f705716d4d288da0a1c1ac5133f577ed2[ALL|FORKID] 03eb20235eada9ce1a28d48e12defe3c9864dd6ee5cd488305feb312486d63a637",
          "hex": "483045022100fe54ff4857c15e942b62f94f1a481a63c0fb7dd1250f2dc0cdc44c353d91170f02201f37fd0b6a3c82c0294d3e2caea57f1f705716d4d288da0a1c1ac5133f577ed2412103eb20235eada9ce1a28d48e12defe3c9864dd6ee5cd488305feb312486d63a637"
        },
        "sequence": 4294967294
      },
      {
        "txid": "7f6aa3b769c80ad2c7cf7ecd340f220fe02a2d29aa4504b9b4b87e744cc8992d",
        "vout": 0,
        "scriptSig": {
          "asm": "3045022100ea87ba4bc91d92cc01199ba18297ef443e45fb8446e8d25d9929274505ca5aaa02205df3994f91b7948d509f0dfc612b38e076a71a7ee4ebaec5a4005b0375082ecb[ALL|FORKID] 02134e601e9a34318107973e04bbbd590793b8ca920983d94a89ffc905d380ac95",
          "hex": "483045022100ea87ba4bc91d92cc01199ba18297ef443e45fb8446e8d25d9929274505ca5aaa02205df3994f91b7948d509f0dfc612b38e076a71a7ee4ebaec5a4005b0375082ecb412102134e601e9a34318107973e04bbbd590793b8ca920983d94a89ffc905d380ac95"
        },
        "sequence": 4294967294
      },
      {
        "txid": "67057481c39fe194aefe08110bd1bb432079800fc71f7f900430e693d5a7cc35",
        "vout": 0,
        "scriptSig": {
          "asm": "3045022100e6a4d3431a7a405c6bc591eabf51f2bd8a34a2843ba6f51817121f4a46126a0502201437dbbc36ef22be8dc6f345f1299747567a53fb14b997538d929bd60880fbf0[ALL|FORKID] 0253f0808fc8aaaca1a760db01f1cb49030f9b250d92803cc63d28644212c04d59",
          "hex": "483045022100e6a4d3431a7a405c6bc591eabf51f2bd8a34a2843ba6f51817121f4a46126a0502201437dbbc36ef22be8dc6f345f1299747567a53fb14b997538d929bd60880fbf041210253f0808fc8aaaca1a760db01f1cb49030f9b250d92803cc63d28644212c04d59"
        },
        "sequence": 4294967294
      },
      {
        "txid": "fdac336b9fdc433c55c22476f475761c6f3cfc24fa9a9ba6fdecba6827acaa3f",
        "vout": 0,
        "scriptSig": {
          "asm": "3044022040a92ef9513ca1ecb0e003ba65252fa91944880b277828c332b814b35b7ba93702202cd65a47f84acba97a9c28b2b90da90e9fdcbbffdb15525ebd3ab94fe51aa38d[ALL|FORKID] 0253f0808fc8aaaca1a760db01f1cb49030f9b250d92803cc63d28644212c04d59",
          "hex": "473044022040a92ef9513ca1ecb0e003ba65252fa91944880b277828c332b814b35b7ba93702202cd65a47f84acba97a9c28b2b90da90e9fdcbbffdb15525ebd3ab94fe51aa38d41210253f0808fc8aaaca1a760db01f1cb49030f9b250d92803cc63d28644212c04d59"
        },
        "sequence": 4294967294
      },
      {
        "txid": "cb0e2e9a70e0e33abbd7ee20091727c2f72be50beec0a5ba5d9f7e71e6df4848",
        "vout": 0,
        "scriptSig": {
          "asm": "3045022100b6abf57215e297062a5ebdce4d276c80e4bdcdf76fd9d4ade1cc63cc113c2905022025b95f12011d43b75b0018671613db56bd05546c66515a71d1d0257ece88f9ea[ALL|FORKID] 03eb20235eada9ce1a28d48e12defe3c9864dd6ee5cd488305feb312486d63a637",
          "hex": "483045022100b6abf57215e297062a5ebdce4d276c80e4bdcdf76fd9d4ade1cc63cc113c2905022025b95f12011d43b75b0018671613db56bd05546c66515a71d1d0257ece88f9ea412103eb20235eada9ce1a28d48e12defe3c9864dd6ee5cd488305feb312486d63a637"
        },
        "sequence": 4294967294
      },
      {
        "txid": "afe0be496347644a6acd34c8acdffc839ce10c35c6dcb9c04e76c16e6b83775e",
        "vout": 0,
        "scriptSig": {
          "asm": "304402206e8082281b5c2929cfeae8c83f0bacfbf081b4ea43d1b440005c8abaabe5ac1e0220619c6756c5796c0472e7f11100a32d98fc71e9bd88f4ed77bc14d9c5ccd4f20f[ALL|FORKID] 0352a5dac8e5e246bd57d208b7309ace7008c9b6c5527ff7146ec47a634b32d1c4",
          "hex": "47304402206e8082281b5c2929cfeae8c83f0bacfbf081b4ea43d1b440005c8abaabe5ac1e0220619c6756c5796c0472e7f11100a32d98fc71e9bd88f4ed77bc14d9c5ccd4f20f41210352a5dac8e5e246bd57d208b7309ace7008c9b6c5527ff7146ec47a634b32d1c4"
        },
        "sequence": 4294967294
      },
      {
        "txid": "556833418c4dba958d056a39e48ff84358a0a830b5e1bf4e5a21dc438a451267",
        "vout": 0,
        "scriptSig": {
          "asm": "30440220699f7a592c2af1e9682e6bfdc3bbaf393c02625256c3328aff4c9b69ef89b05e0220474b42eb64a196e8664e798b538ff3d1f944d39df452b79d247866851d0b55bb[ALL|FORKID] 0253f0808fc8aaaca1a760db01f1cb49030f9b250d92803cc63d28644212c04d59",
          "hex": "4730440220699f7a592c2af1e9682e6bfdc3bbaf393c02625256c3328aff4c9b69ef89b05e0220474b42eb64a196e8664e798b538ff3d1f944d39df452b79d247866851d0b55bb41210253f0808fc8aaaca1a760db01f1cb49030f9b250d92803cc63d28644212c04d59"
        },
        "sequence": 4294967294
      },
      {
        "txid": "53de525c662c7f97f6099dda05d7f4f96c15dd40f11b06033e2bb042aeddbe67",
        "vout": 0,
        "scriptSig": {
          "asm": "3045022100aaedf89633338fd1f2d0a96531809201b8b76c5d4a3c39fc2d2ccd97962cc8b102207e369c9adc31f1cea5d61357e1ee47bcc366110e49d3022da39d7d6876b0222c[ALL|FORKID] 022ae373ff0a53eece511310cd742d5fee28a60dbb86a88df1c802dbf887da4691",
          "hex": "483045022100aaedf89633338fd1f2d0a96531809201b8b76c5d4a3c39fc2d2ccd97962cc8b102207e369c9adc31f1cea5d61357e1ee47bcc366110e49d3022da39d7d6876b0222c4121022ae373ff0a53eece511310cd742d5fee28a60dbb86a88df1c802dbf887da4691"
        },
        "sequence": 4294967294
      },
      {
        "txid": "79841a3299250ada6a3206708909669ecc4fc9bf0fd4a2ca1e5446ab50a01a77",
        "vout": 1,
        "scriptSig": {
          "asm": "3044022012d5cd8a0bfbd785647ec6ca461b91039664a4f1c7b10ea1beb5d87852cbf58c02204162cfc18cb84a27614262128529e80d75d8471c9a85c74521234c2e3e4f4eaf[ALL|FORKID] 028624044546bd6f19710a4fe03e685b7b0f1a6b1dac77b8e810c9b656bfef5c46",
          "hex": "473044022012d5cd8a0bfbd785647ec6ca461b91039664a4f1c7b10ea1beb5d87852cbf58c02204162cfc18cb84a27614262128529e80d75d8471c9a85c74521234c2e3e4f4eaf4121028624044546bd6f19710a4fe03e685b7b0f1a6b1dac77b8e810c9b656bfef5c46"
        },
        "sequence": 4294967294
      },
      {
        "txid": "3296e9a6efad366349374fea6c99a67a1d1dd760f5bbec49f2991deea5b25778",
        "vout": 0,
        "scriptSig": {
          "asm": "304402204f3dffa8908624def7524feaaa8bfbc61916210f514512b6fc00bcd355324cbc022001f1e1996c573118bed517c95537049760104c61e3ed1c0573e53137fc52e39f[ALL|FORKID] 020319f1426ad1691232ddae4df7c99d12d8b91ea4213eb3d75a4ef9714c039723",
          "hex": "47304402204f3dffa8908624def7524feaaa8bfbc61916210f514512b6fc00bcd355324cbc022001f1e1996c573118bed517c95537049760104c61e3ed1c0573e53137fc52e39f4121020319f1426ad1691232ddae4df7c99d12d8b91ea4213eb3d75a4ef9714c039723"
        },
        "sequence": 4294967294
      },
      {
        "txid": "5f223d0d4ce7a6bd673a4e8d1d3280ad2ce4be6cc641b20b79a1f94513791e7f",
        "vout": 0,
        "scriptSig": {
          "asm": "304402200ebcd925b906bc296cee20108e735c785795a75c1cae13e7476140233cd433b2022063436288752ff69aee106b2c57233aa4b035da516278f738992e0a93daacd0c8[ALL|FORKID] 0352a5dac8e5e246bd57d208b7309ace7008c9b6c5527ff7146ec47a634b32d1c4",
          "hex": "47304402200ebcd925b906bc296cee20108e735c785795a75c1cae13e7476140233cd433b2022063436288752ff69aee106b2c57233aa4b035da516278f738992e0a93daacd0c841210352a5dac8e5e246bd57d208b7309ace7008c9b6c5527ff7146ec47a634b32d1c4"
        },
        "sequence": 4294967294
      },
      {
        "txid": "66b6b30cca660c000df6d9314b6e9c09a0d5914df44db7d569f176185eb38780",
        "vout": 1,
        "scriptSig": {
          "asm": "3044022011096f0864d4349bae2aa59b6cbd28e57ecffbc61e966f2813feff2e8c4b0f4902201563594a25bc7dd90ebe3a26b301b9e6dfd8f89b62fa3f090035252388441835[ALL|FORKID] 03482a297d29ace3abbea82fd66380e2abe9cc5130ffbe4c2203798062d63e7d63",
          "hex": "473044022011096f0864d4349bae2aa59b6cbd28e57ecffbc61e966f2813feff2e8c4b0f4902201563594a25bc7dd90ebe3a26b301b9e6dfd8f89b62fa3f090035252388441835412103482a297d29ace3abbea82fd66380e2abe9cc5130ffbe4c2203798062d63e7d63"
        },
        "sequence": 4294967294
      },
      {
        "txid": "0a04e2d08591206a293e625486d6758f36266199fb99f4d0cefb24c93625f799",
        "vout": 1,
        "scriptSig": {
          "asm": "30440220264f1db1e3f1fb976dca459a0789497ac72cee741fbc1f3917f438b9aab5d17802205379fe9b9b8c2b5d56bbd7ab57c0e31a5205e56d22090bfef607caee1ff4e4ab[ALL|FORKID] 0253f0808fc8aaaca1a760db01f1cb49030f9b250d92803cc63d28644212c04d59",
          "hex": "4730440220264f1db1e3f1fb976dca459a0789497ac72cee741fbc1f3917f438b9aab5d17802205379fe9b9b8c2b5d56bbd7ab57c0e31a5205e56d22090bfef607caee1ff4e4ab41210253f0808fc8aaaca1a760db01f1cb49030f9b250d92803cc63d28644212c04d59"
        },
        "sequence": 4294967294
      },
      {
        "txid": "c8e9422121ba7e35f98e7be7584cba036bb3b30031fe978a3cd9b909d4405aa1",
        "vout": 1,
        "scriptSig": {
          "asm": "304402206c4872a0cf8fd7bb11fd185fc0b402497136a8a39cff81270b9aff1e7ec9f33902203c59308551d04234336355845ee4ae127356f3835aa03fda2b2d4b4c52106396[ALL|FORKID] 02f1f2a992523e24bc5ffca00e8350416d1bb51c190b703d9ebf15a32a3c4ed6aa",
          "hex": "47304402206c4872a0cf8fd7bb11fd185fc0b402497136a8a39cff81270b9aff1e7ec9f33902203c59308551d04234336355845ee4ae127356f3835aa03fda2b2d4b4c52106396412102f1f2a992523e24bc5ffca00e8350416d1bb51c190b703d9ebf15a32a3c4ed6aa"
        },
        "sequence": 4294967294
      },
      {
        "txid": "ef4c0393d3585e70d292a6c9a13050698ae7faba70d1abb31296f30eda5e69b3",
        "vout": 0,
        "scriptSig": {
          "asm": "30440220727ee0ebb086ffb4a88565ce3d6d9af10ed339c40474168d8593f60c09f1ee4d022035d26fff5b7bdf1df0af2b5d7867d25783cd9ac8138b90f7bb3b39994a9c751b[ALL|FORKID] 0253f0808fc8aaaca1a760db01f1cb49030f9b250d92803cc63d28644212c04d59",
          "hex": "4730440220727ee0ebb086ffb4a88565ce3d6d9af10ed339c40474168d8593f60c09f1ee4d022035d26fff5b7bdf1df0af2b5d7867d25783cd9ac8138b90f7bb3b39994a9c751b41210253f0808fc8aaaca1a760db01f1cb49030f9b250d92803cc63d28644212c04d59"
        },
        "sequence": 4294967294
      },
      {
        "txid": "bcaeb1f8eff1c203c418ae76ccb14149d748a8123701c05d255d2dd28eb655b4",
        "vout": 0,
        "scriptSig": {
          "asm": "3044022014654a775ccdf1e1ceea63a3a5a4a4c7f52855f6657b8ba36f2e2dcd2d30178e022061b293c7fcd9d8fb7e575605dd8af816e04f22015bfb51db2d766048f67246b4[ALL|FORKID] 0352a5dac8e5e246bd57d208b7309ace7008c9b6c5527ff7146ec47a634b32d1c4",
          "hex": "473044022014654a775ccdf1e1ceea63a3a5a4a4c7f52855f6657b8ba36f2e2dcd2d30178e022061b293c7fcd9d8fb7e575605dd8af816e04f22015bfb51db2d766048f67246b441210352a5dac8e5e246bd57d208b7309ace7008c9b6c5527ff7146ec47a634b32d1c4"
        },
        "sequence": 4294967294
      },
      {
        "txid": "fcce2f21bda57d1c6399959279ffe0d6ea14dc5399f7f6ac507485037ca860b7",
        "vout": 0,
        "scriptSig": {
          "asm": "3045022100841f0925aa03bb53821403a7867f93f82a20966bfe02ec43bb59e963c6544a08022075c299718fbf1990d9625a05daa451c157eaad3ff70e6a59cce41545eb08ed41[ALL|FORKID] 0253f0808fc8aaaca1a760db01f1cb49030f9b250d92803cc63d28644212c04d59",
          "hex": "483045022100841f0925aa03bb53821403a7867f93f82a20966bfe02ec43bb59e963c6544a08022075c299718fbf1990d9625a05daa451c157eaad3ff70e6a59cce41545eb08ed4141210253f0808fc8aaaca1a760db01f1cb49030f9b250d92803cc63d28644212c04d59"
        },
        "sequence": 4294967294
      },
      {
        "txid": "ab66d07157e0993f340ede9b1f266ad7f22e48a5d26801389d3b02c535f20bb8",
        "vout": 0,
        "scriptSig": {
          "asm": "304402202f00952da396fca5676da36f9c45f80731b08d5333863d31ce78c3daeb961f0f02203877378dae8e64145592741c957670a8e3bdef0bad166e4a534d5bc50394790b[ALL|FORKID] 02134e601e9a34318107973e04bbbd590793b8ca920983d94a89ffc905d380ac95",
          "hex": "47304402202f00952da396fca5676da36f9c45f80731b08d5333863d31ce78c3daeb961f0f02203877378dae8e64145592741c957670a8e3bdef0bad166e4a534d5bc50394790b412102134e601e9a34318107973e04bbbd590793b8ca920983d94a89ffc905d380ac95"
        },
        "sequence": 4294967294
      },
      {
        "txid": "1e26c83e3fb2620f3ed3cd4e41e17ecc4e2135eb1a69c5ad135e38ca2a5d77c0",
        "vout": 1,
        "scriptSig": {
          "asm": "3045022100b2a9bc830c0794be181b396b11a03cba412ad8a5b5c3ed4080d1bd288f0032a202205c828c2f9b0027aed64e75e9597ccf4e7b66479392a6a2749a196c2a0ef382de[ALL|FORKID] 03e7c53b858898282285ff3d1239a4bf4adfc43fd7979f4d9627f99ccae3f768d1",
          "hex": "483045022100b2a9bc830c0794be181b396b11a03cba412ad8a5b5c3ed4080d1bd288f0032a202205c828c2f9b0027aed64e75e9597ccf4e7b66479392a6a2749a196c2a0ef382de412103e7c53b858898282285ff3d1239a4bf4adfc43fd7979f4d9627f99ccae3f768d1"
        },
        "sequence": 4294967294
      },
      {
        "txid": "6493517f6a43d6d13361b3d014e6775affd984612ec12b999a01dfdcf09cc9c0",
        "vout": 0,
        "scriptSig": {
          "asm": "3045022100ca9c3197fdf763de7b1f01868e22f74dc110595e8055e5c700a6d9b8870366b702205c91f018ca79dae60ea1c0b11670d08985cf66c1a0169b77500281f8c5169e52[ALL|FORKID] 02c0dd423f49462e81067684e7c8dbcfc4216ca23b9ede6485738d0f18722f6656",
          "hex": "483045022100ca9c3197fdf763de7b1f01868e22f74dc110595e8055e5c700a6d9b8870366b702205c91f018ca79dae60ea1c0b11670d08985cf66c1a0169b77500281f8c5169e52412102c0dd423f49462e81067684e7c8dbcfc4216ca23b9ede6485738d0f18722f6656"
        },
        "sequence": 4294967294
      },
      {
        "txid": "34f7f7c86625b3fc8ae6b7ca462e4d2e1bfc82359dcb35ed2293bf90c1a883cb",
        "vout": 1,
        "scriptSig": {
          "asm": "3045022100d6f0427566c86c7c4169ab7c60ef26e06945ecb5b6b1ab419d5f28a43b159bdc02204ae7a3045d4feb20cedde99d7802b10079d3b4fa36ee02ff93aa0c7e3728fd7e[ALL|FORKID] 0352a5dac8e5e246bd57d208b7309ace7008c9b6c5527ff7146ec47a634b32d1c4",
          "hex": "483045022100d6f0427566c86c7c4169ab7c60ef26e06945ecb5b6b1ab419d5f28a43b159bdc02204ae7a3045d4feb20cedde99d7802b10079d3b4fa36ee02ff93aa0c7e3728fd7e41210352a5dac8e5e246bd57d208b7309ace7008c9b6c5527ff7146ec47a634b32d1c4"
        },
        "sequence": 4294967294
      },
      {
        "txid": "77ed6b5fad7aead99716bbc5e91ac2c065ac7444900a3a4b7b77fe9c32f938cf",
        "vout": 0,
        "scriptSig": {
          "asm": "304502210085e057334d5b442ffbeb97e1336fff3565fe1c481e9f38f0c9d46794d033e8b002200315f5c43b25005b9854bf7178c609ee92431a2e465fffbf6c5a088d6104c298[ALL|FORKID] 02134e601e9a34318107973e04bbbd590793b8ca920983d94a89ffc905d380ac95",
          "hex": "48304502210085e057334d5b442ffbeb97e1336fff3565fe1c481e9f38f0c9d46794d033e8b002200315f5c43b25005b9854bf7178c609ee92431a2e465fffbf6c5a088d6104c298412102134e601e9a34318107973e04bbbd590793b8ca920983d94a89ffc905d380ac95"
        },
        "sequence": 4294967294
      },
      {
        "txid": "aa32bfda3b2a6d4fa9b093fb0bf70e610a198ed5eafc7ade164da146ab0b58f5",
        "vout": 0,
        "scriptSig": {
          "asm": "30440220561c623405d4ebd484731ea6b825d2523610d1a2e87d9daff0a582b81472e36b02201d489ea38abfab1bca2530eb6fd0e6a8aca588469b5f0a78c4d7cb7ab9d8df3a[ALL|FORKID] 02134e601e9a34318107973e04bbbd590793b8ca920983d94a89ffc905d380ac95",
          "hex": "4730440220561c623405d4ebd484731ea6b825d2523610d1a2e87d9daff0a582b81472e36b02201d489ea38abfab1bca2530eb6fd0e6a8aca588469b5f0a78c4d7cb7ab9d8df3a412102134e601e9a34318107973e04bbbd590793b8ca920983d94a89ffc905d380ac95"
        },
        "sequence": 4294967294
      },
      {
        "txid": "1161f0cc6dee11570ca6b1cf21ac86298b186c57daf87def9d1312f8af1658ff",
        "vout": 0,
        "scriptSig": {
          "asm": "30440220606eacc4ca43d655dc214ea5b45d452554f8b52be9e2509e583c3a420c61086802204a2ca99144e287f386c69e717bf91b774c8e31e034a49bfe81733c8fbf813610[ALL|FORKID] 0352a5dac8e5e246bd57d208b7309ace7008c9b6c5527ff7146ec47a634b32d1c4",
          "hex": "4730440220606eacc4ca43d655dc214ea5b45d452554f8b52be9e2509e583c3a420c61086802204a2ca99144e287f386c69e717bf91b774c8e31e034a49bfe81733c8fbf81361041210352a5dac8e5e246bd57d208b7309ace7008c9b6c5527ff7146ec47a634b32d1c4"
        },
        "sequence": 4294967294
      },
      {
        "txid": "e24a101152933bb54380ee2b4993bdec62103885d2c69adccc879a30c8049dba",
        "vout": 0,
        "scriptSig": {
          "asm": "3045022100e94c98f9fc85a235f7b590afd5f6a810b35038eb12b89a3c32449fc6ffd6eb420220015a68ecb66e385329c13e3bce57d1bb419b09c858752a435fb4b90b6b98f2dd[ALL|FORKID] 02036aacac07b66640ef9ffa77e29ca4560dc5a4db036de0378078ae758045f094",
          "hex": "483045022100e94c98f9fc85a235f7b590afd5f6a810b35038eb12b89a3c32449fc6ffd6eb420220015a68ecb66e385329c13e3bce57d1bb419b09c858752a435fb4b90b6b98f2dd412102036aacac07b66640ef9ffa77e29ca4560dc5a4db036de0378078ae758045f094"
        },
        "sequence": 4294967294
      },
      {
        "txid": "51d424119549497c87d2e14c4007e31b79b66404cd33abd87bbf10e28dafa99a",
        "vout": 0,
        "scriptSig": {
          "asm": "304402202c37398d3deb07ba5e6aadf6945073b6b6cb33a64ce4ccb23d14609395df867602202c0714be68ba463afe9d4bec6a8b5ddf3b5edd7b50950b5a03c10eacd197ddc2[ALL|FORKID] 02a121bc56e95aba6dd72699d83e285e5638031ee01d7e04d69dc20645f0d811f3",
          "hex": "47304402202c37398d3deb07ba5e6aadf6945073b6b6cb33a64ce4ccb23d14609395df867602202c0714be68ba463afe9d4bec6a8b5ddf3b5edd7b50950b5a03c10eacd197ddc2412102a121bc56e95aba6dd72699d83e285e5638031ee01d7e04d69dc20645f0d811f3"
        },
        "sequence": 4294967294
      },
      {
        "txid": "51d424119549497c87d2e14c4007e31b79b66404cd33abd87bbf10e28dafa99a",
        "vout": 1,
        "scriptSig": {
          "asm": "30440220254854900c204afa86a831e2e2fea6df1ae731c34c57a4c460e9da8a0ad5afea022033b2fa8f32c31566ebeb5cdd0c036cb0d5da7e62c99c7c5b9a4ebb4305512bc5[ALL|FORKID] 02d7e096ae8d1ad5fcc71f9effadc7324313d4db37fd3578edfbb7bac18b8239bd",
          "hex": "4730440220254854900c204afa86a831e2e2fea6df1ae731c34c57a4c460e9da8a0ad5afea022033b2fa8f32c31566ebeb5cdd0c036cb0d5da7e62c99c7c5b9a4ebb4305512bc5412102d7e096ae8d1ad5fcc71f9effadc7324313d4db37fd3578edfbb7bac18b8239bd"
        },
        "sequence": 4294967294
      },
      {
        "txid": "56a02ff8696ecb22423987167fd18160986d73c5a8354c5413cf1116c6115291",
        "vout": 0,
        "scriptSig": {
          "asm": "3044022013859f9db46d2a84ce495b385ea44d678ae8117719e31db68bd93ed6ff2c147602201b6873b477823d10dd4b621ea3e9374b5e4e7ea57b37bb345905fa98af8a79ba[ALL|FORKID] 02a9a3b6a818a0e1adf83c466ce86df14575849cf3afb59473e6e117184518f161",
          "hex": "473044022013859f9db46d2a84ce495b385ea44d678ae8117719e31db68bd93ed6ff2c147602201b6873b477823d10dd4b621ea3e9374b5e4e7ea57b37bb345905fa98af8a79ba412102a9a3b6a818a0e1adf83c466ce86df14575849cf3afb59473e6e117184518f161"
        },
        "sequence": 4294967294
      },
      {
        "txid": "c7c71ef59559788e301b674fcf7728942f1e8a17a00803b8c39092ea1cb1a500",
        "vout": 0,
        "scriptSig": {
          "asm": "30440220010e2a54dfe424f29515fac69d0f1dc9042f9615ee01ea8873704313aeb8596b02207598b6344e604012f7f3476d35d064a915148604f4b0bc43a1cca7589b541281[ALL|FORKID] 02d7e096ae8d1ad5fcc71f9effadc7324313d4db37fd3578edfbb7bac18b8239bd",
          "hex": "4730440220010e2a54dfe424f29515fac69d0f1dc9042f9615ee01ea8873704313aeb8596b02207598b6344e604012f7f3476d35d064a915148604f4b0bc43a1cca7589b541281412102d7e096ae8d1ad5fcc71f9effadc7324313d4db37fd3578edfbb7bac18b8239bd"
        },
        "sequence": 4294967294
      }
    ],
    "vout": [
      {
        "value": 0.00005673,
        "n": 0,
        "scriptPubKey": {
          "asm": "OP_DUP OP_HASH160 ee3ed37225d569a1bd101950c905bd366c2ef585 OP_EQUALVERIFY OP_CHECKSIG",
          "hex": "76a914ee3ed37225d569a1bd101950c905bd366c2ef58588ac",
          "reqSigs": 1,
          "type": "pubkeyhash",
          "addresses": [
            "bchtest:qrhra5mjyh2kngdazqv4pjg9h5mxcth4s5jfez39qd"
          ]
        }
      },
      {
        "value": 29.04600000,
        "n": 1,
        "scriptPubKey": {
          "asm": "OP_HASH160 1b43c93e1b472963a93dcf71ef4c7dc8723140d1 OP_EQUAL",
          "hex": "a9141b43c93e1b472963a93dcf71ef4c7dc8723140d187",
          "reqSigs": 1,
          "type": "scripthash",
          "addresses": [
            "bchtest:pqd58jf7rdrjjcaf8h8hrm6v0hy8yv2q6yaq5kl5wg"
          ]
        }
      }
    ],
    "blockhash": "000000000000009af8aca5aea918b973c75950bc1f64c3017d6b3224d2638546",
    "confirmations": 38231,
    "time": 1541156388,
    "blocktime": 1541156388
  },
  "error": null,
  "id": "curltest"
}
